:100000000C9435000C945D000C945D000C945D0024
:100010000C945D000C945D000C945D000C945D00EC
:100020000C945D000C945D000C945D000C945D00DC
:100030000C945D000C945D000C945D000C945D00CC
:100040000C9452030C945D000C9420030C94FA025F
:100050000C945D000C945D000C945D000C945D00AC
:100060000C945D000C945D006A0511241FBECFEF57
:10007000D8E0DEBFCDBF12E0A0E0B1E0E6ECFBE0EF
:1000800002C005900D92A436B107D9F723E0A4E68B
:10009000B2E001C01D92A134B207E1F710E0C5E360
:1000A000D0E004C02197FE010E949705C433D10718
:1000B000C9F70E949C030C94E1050C940000CF92B8
:1000C000DF92EF92FF920F931F93CF93DF936C0118
:1000D0007A018B01C0E0D0E0CE15DF0589F0D801B0
:1000E0006D918D01D601ED91FC910190F081E02D93
:1000F000C6010995892B11F47E0102C02196ECCF2F
:10010000C701DF91CF911F910F91FF90EF90DF908A
:10011000CF900895FC01918D828D981761F0828DAA
:10012000DF01A80FB11D5D968C91928D9F5F9F732B
:10013000928F90E008958FEF9FEF0895FC01918DCD
:10014000828D981731F0828DE80FF11D858D90E03A
:1001500008958FEF9FEF0895FC01918D228D892FD7
:1001600090E0805C9F4F821B91098F7399270895BF
:1001700083EA92E00E94AC0021E0892B09F420E0A0
:10018000822F0895FC01848DDF01A80FB11DA35AB1
:10019000BF4F2C91848D90E001968F739927848FA7
:1001A000A689B7892C93A089B1898C9180648C939E
:1001B000938D848D981306C00288F389E02D808189
:1001C0008F7D80830895EF92FF920F931F93CF93BB
:1001D000DF93EC0181E0888F9B8D8C8D981305C097
:1001E000E889F989808185FD24C0F62E0B8D10E009
:1001F0000F5F1F4F0F731127E02E8C8DE8120CC07C
:100200000FB607FCFACFE889F989808185FFF5CF21
:10021000CE010E94C200F1CF8B8DFE01E80FF11DCF
:10022000E35AFF4FF0820B8FEA89FB89808180625D
:1002300007C0EE89FF896083E889F989808180643D
:10024000808381E090E0DF91CF911F910F91FF902B
:10025000EF900895CF93DF93EC01888D8823C9F048
:10026000EA89FB89808185FD05C0A889B9898C91BF
:1002700086FD0FC00FB607FCF5CF808185FFF2CF5A
:10028000A889B9898C9185FFEDCFCE010E94C2006B
:10029000E7CFDF91CF91089580E090E0892B29F09E
:1002A0000E94B80081110C94000008953FB7F894A3
:1002B0008091690290916A02A0916B02B0916C02E8
:1002C00026B5A89B05C02F3F19F00196A11DB11DB1
:1002D0003FBFBA2FA92F982F8827820F911DA11DEC
:1002E000B11DBC01CD0142E0660F771F881F991F29
:1002F0004A95D1F708958F929F92AF92BF92CF9275
:10030000DF92EF92FF920E9456014B015C0188EE52
:10031000C82E83E0D82EE12CF12C0E945601DC017E
:10032000CB0188199909AA09BB09883E9340A10508
:10033000B10558F021E0C21AD108E108F10888EEB1
:10034000880E83E0981EA11CB11CC114D104E104E5
:10035000F10419F7FF90EF90DF90CF90BF90AF902E
:100360009F908F900895CF93DF93009779F0FC01D1
:1003700001900020E9F73197AF01481B590BBC01F0
:1003800083EA92E00E945F00EC0102C0C0E0D0E08E
:1003900042E050E060E271E083EA92E00E945F0098
:1003A0008C0F9D1FDF91CF9108950E94C605CF92BB
:1003B000DF92EF92FF920F931F93CF93DF93EB01A6
:1003C0007B0124E0E20EF11C8B016C01C61AD70AF6
:1003D000C601800F911F0E94CB05F80181938F0108
:1003E000EE15FF05A9F7CE01DF91CF911F910F9177
:1003F000FF90EF90DF90CF900895CF92DF92EF9231
:10040000FF920F931F93CF93DF93EB017B0124E0C7
:10041000E20EF11C8B016C01C61AD70AC601800FCF
:10042000911F0E94CB05F80181938F01EE15FF0506
:10043000A9F7CE01DF91CF911F910F91FF90EF901F
:10044000DF90CF9008950F931F93CF93DF938C018C
:10045000EB010E94CB058883C80101960E94CB0561
:100460008983CE01DF91CF911F910F910895EF9273
:10047000FF920F931F93CF93DF931F92CDB7DEB7F9
:100480007C01FC0100811181C80169830E94CB05B8
:100490006981681719F0C8010E94D305C7010F9040
:1004A000DF91CF911F910F91FF90EF900895CF931F
:1004B000DF9300D0CDB7DEB76091400388E790E0CE
:1004C0009A838983CE0101960E94370280E493E0EB
:1004D0000F900F90DF91CF910895AF92BF92CF927E
:1004E000DF92EF92FF920F931F93CF93DF9300D091
:1004F000CDB7DEB78B016B0124E0C20ED11C7B01AE
:100500005C01A61AB70A95012E0D3F1DF7016191F6
:100510007F013A832983CE0101960E943702EC14B1
:10052000FD0489F7C8010F900F90DF91CF911F91C3
:100530000F91FF90EF90DF90CF90BF90AF90089514
:10054000AF92BF92CF92DF92EF92FF920F931F93E1
:10055000CF93DF9300D0CDB7DEB78B016B0124E0E2
:10056000C20ED11C7B015C01A61AB70A95012E0DA3
:100570003F1DF70161917F013A832983CE010196E6
:100580000E943702EC14FD0489F7C8010F900F9008
:10059000DF91CF911F910F91FF90EF90DF90CF905F
:1005A000BF90AF900895EF92FF920F931F93CF9358
:1005B000DF9300D0CDB7DEB78C017B01FB016081FA
:1005C0009A838983CE0101960E943702F7016181E7
:1005D0000F5F1F4F1A830983CE0101960E943702D5
:1005E000C7010F900F90DF91CF911F910F91FF9056
:1005F000EF9008951F920F920FB60F9211242F9330
:100600003F934F935F936F937F938F939F93AF939A
:10061000BF93EF93FF9383EA92E00E94C200FF91A1
:10062000EF91BF91AF919F918F917F916F915F916A
:100630004F913F912F910F900FBE0F901F901895E3
:100640001F920F920FB60F9211242F938F939F93A7
:10065000EF93FF93E091B302F091B4028081E091B7
:10066000B902F091BA0282FD12C090818091BC0261
:100670008F5F8F732091BD02821751F0E091BC0211
:10068000F0E0ED55FD4F958F8093BC0201C0808155
:10069000FF91EF919F918F912F910F900FBE0F902F
:1006A0001F9018951F920F920FB60F9211242F933F
:1006B0003F938F939F93AF93BF93809165029091E7
:1006C0006602A0916702B09168023091640223E053
:1006D000230F2D3720F40196A11DB11D05C026E87A
:1006E000230F0296A11DB11D209364028093650221
:1006F00090936602A0936702B093680280916902AA
:1007000090916A02A0916B02B0916C020196A11DBA
:10071000B11D8093690290936A02A0936B02B0931B
:100720006C02BF91AF919F918F913F912F910F904C
:100730000FBE0F901F901895789484B5826084BD89
:1007400084B5816084BD85B5826085BD85B58160D5
:1007500085BD80916E00816080936E001092810053
:10076000809181008260809381008091810081600E
:1007700080938100809180008160809380008091CF
:10078000B10084608093B1008091B000816080935B
:10079000B00080917A00846080937A0080917A0022
:1007A000826080937A0080917A00816080937A00E1
:1007B00080917A00806880937A001092C100E09165
:1007C000B302F091B40282E08083E091AF02F09135
:1007D000B0021082E091B102F091B2028FEC8083FE
:1007E0001092BB02E091B702F091B80286E08083DC
:1007F000E091B502F091B602808180618083E09142
:10080000B502F091B602808188608083E091B502E4
:10081000F091B602808180688083E091B502F0910A
:10082000B60280818F7D80836EE071E080E090E091
:100830000E94D3026CE071E084E090E00E94D30259
:100840000E94570268E071E088EC90E00E94A002EC
:1008500064E071E08CE890E00E94A0026BE772E037
:1008600084E190E00E946D0260E071E08CE390E032
:100870000E946D0267E772E08EE190E00E946D02D7
:1008800063E772E086E490E00E94A0026FE672E007
:100890008AE590E00E946D020E9457020E947B014F
:1008A00080916D0290916E02181619060CF40FC11A
:1008B00061EA72E080E090E00E9423026FE972E05A
:1008C00084E090E00E9423026DE972E089E090E00C
:1008D0000E9423026BE972E088E790E00E94230205
:1008E00067E972E088EC90E00E94FD0163E972E044
:1008F0008CE890E00E94FD016FE872E084E190E0F6
:100900000E94D7016BE872E08CE390E00E94D7016F
:1009100067E872E08EE190E00E94D70163E872E040
:1009200086E490E00E94FD016FE772E08AE590E0C6
:100930000E94D7010E947B0120910E0130910F018E
:100940008091A1029091A2022817390719F483E23D
:1009500091E002C089E391E00E94B30120910C0173
:1009600030910D0180919F029091A00228173907C4
:1009700021F48EE491E00E94B3014091080150916E
:10098000090160910A0170910B0180919702909189
:100990009802A0919902B0919A02481759076A07E4
:1009A0007B0719F484E691E002C08AE791E00E9497
:1009B000B30120918F0230919002409191025091A9
:1009C000920260917B0270917C0280917D029091F5
:1009D0007E020E949D05811103C08FE891E002C054
:1009E00084EA91E00E94B30120E030E04CE852E458
:1009F00060918B0270918C0280918D0290918E0299
:100A00000E949D05811103C088EB91E002C08EEC2D
:100A100091E00E94B30120918702309188024091B9
:100A2000890250918A0260917702709178028091D8
:100A3000790290917A020E949D05811103C083EE94
:100A400091E002C08AEF91E00E94B30140917302ED
:100A500050917402609175027091760280918302C8
:100A600090918402A0918502B0918602481759079F
:100A70006A077B0719F480E192E002C086E292E007
:100A80000E94B30120917F02309180024091810247
:100A90005091820260916F02709170028091710298
:100AA000909172020E949D05811103C08BE392E038
:100AB00002C080E592E00E94B30180916D029091A6
:100AC0006E02019690936E0280936D02E9CE0E94B1
:100AD0004C01E6CEE3EAF2E01382128288EE93E064
:100AE000A0E0B0E084839583A683B78384E191E09E
:100AF0009183808385EC90E09587848784EC90E0F7
:100B00009787868780EC90E0918B808B81EC90E0DA
:100B1000938B828B82EC90E0958B848B86EC90E0BB
:100B2000978B868B118E128E138E148E0895EE0F76
:100B3000FF1F0590F491E02D09940E94A20508F48E
:100B400081E00895990F0008550FAA0BE0E8FEEF29
:100B500016161706E807F907C0F012161306E40781
:100B6000F50798F0621B730B840B950B39F40A267A
:100B700061F0232B242B252B21F408950A2609F458
:100B8000A140A6958FEF811D811D089581E090E021
:100B9000F8940C94E105F999FECF92BD81BDF89AC5
:100BA000992780B50895262FF999FECF1FBA92BDD7
:100BB00081BD20BD0FB6F894FA9AF99A0FBE01963E
:060BC0000895F894FFCF38
:100BC6000000F042894AB32A894AB32AD204E007D0
:100BD60000000000E3005F00AC008A009E002A01CE
:100BE6000D0A0050617373312077726974696E67FC
:100BF6002053554343455353005061737331207757
:100C0600726974696E67204641494C4544005061DB
:100C16007373322077726974696E67205355434344
:100C26004553530070686F6E652077726974696EFC
:100C36006720535543434553530070686F6E6520D4
:100C460077726974696E67204641494C4544006D68
:100C56007174792077726974696E672053554343BE
:100C6600455353006D7174792077726974696E67A4
:100C7600204641494C4544006D5F73746420777289
:100C86006974696E672053554343455353006D5F3E
:100C96007374642077726974696E67204641494CA3
:100CA6004544006D5F726D6E672077726974696E78
:100CB600672053554343455353006D5F726D6E670E
:100CC6002077726974696E67204641494C45440035
:100CD6006D5F636C622077726974696E6720535525
:100CE6004343455353006D5F636C622077726974AA
:100CF600696E67204641494C4544006D5F74742017
:100D060077726974696E67205355434345535300A0
:100D16006D5F74742077726974696E672046414905
:040D26004C454400F4
:00000001FF
