:100000000C941D030C9445030C9445030C94700947
:100010000C9470090C9470090C94BA170C94450355
:100020000C9445030C9445030C9445030C94450330
:100030000C9445030C9445030C9445030C94450320
:100040000C94F8070C9445030C94F7060C94D10615
:100050000C9445030C9445030C9445030C94450300
:100060000C9442080C9445034523FD231F242224AD
:10007000B62435250F27C823C823471CBE0FC60F3B
:10008000CE0FF80F0F1018102110DB0F21100F10DA
:10009000151618162B163B164A165E166716070419
:1000A000001C101D020500080C0A09091A1800009E
:1000B0001F1F1F1F401F0E040040404040401F0EE6
:1000C0000400404040401F1F1F1F001F1F1F1F40F4
:1000D00040404000040E1F404040404000040E1FBE
:1000E000401F1F1F1F0020434C45414E00205265FA
:1000F000736572766500204C6F61642070726F6466
:10010000756374002043616C6962726174650020DC
:10011000524553455400204368616E676520506125
:100120007373776F72640020456E746572206E750C
:100130006D626572320020456E746572206E756D59
:1001400062657231002052657365727665002054D5
:100150006F74616C2053616C65730020536574206B
:10016000556E6974205072696365002041646D6941
:100170006E3A0020557365723A002053656C6C3AF4
:1001800000DD00D400CB00C200B900B000A7009E83
:100190000000000008000201000003040700000046
:1001A0000000000000204865776265002020706F25
:1001B000776572656420627900596F752070726589
:1001C000737365642045534300496E76616C6964BE
:1001D00020696E707574210052656D61696E696E7B
:1001E00067004C6F61642050726F647563742E2ECB
:1001F00000556E697473005468616E6B20796F7579
:1002000000202043616E63656C6C65643A200020B9
:1002100056454E44494E472E2E2E00446F6E653A89
:10022000005072657373202320746F2073746F7095
:100230002E2E0043616C6962726174696E672E2EA6
:100240002E005072657373202A20746F20737461BE
:10025000727400444F4E4521005072657373202321
:1002600020746F2073746F702E2E20004365616EB2
:10027000696E6720444F4E452100507265737320AC
:100280002A20746F207374617274005072657373E6
:10029000202A20746F20737461727400596F752066
:1002A000707265737365642045534300496E7661CF
:1002B0006C696420696E70757421004C74727300EF
:1002C000456E74657220416D6F756E743A0004015D
:1002D000F600ED00E600596F752070726573736566
:1002E000642045534300496E76616C696420696EF1
:1002F0007075742121005061737320436F727265B1
:1003000063740020456E7465722070617373776F3B
:1003100072643A00596F752070726573736564205A
:1003200045534300496E76616C696420696E70754F
:1003300074212100496E76616C696420696E707564
:100340007421210050617373204D6174636800450E
:100350006E74657220616761696E3A00456E7465FE
:1003600072206E657720706173733A00596F752043
:10037000707265737365642045534300496E7661FE
:100380006C696420696E707574212100506173730B
:100390002057726F6E67210050617373204368614C
:1003A0006E676564005061737320436F727265639A
:1003B0007400456E746572206F6C64207061737395
:1003C0003A00524553455420434F4D504C455445F7
:1003D00000596F75207072657373656420455343CF
:1003E00000696E76616C696420696E7075742100B5
:1003F000596F7520656E74657265643A00456E7458
:100400006572206E756D6265723A00596F75207065
:100410007265737365642045534300696E76616C41
:10042000696420696E7075742100596F7520656E5E
:1004300074657265643A00456E746572206E756D00
:100440006265723A00596F752070726573736564E6
:100450002045534300496E76616C696420696E7073
:1004600075742100556E69742050726963653A0095
:10047000556E69742070726963653A20005B014EA5
:100480000145013601270116010F017A0173016B45
:1004900001507269636520506572204C3A0000007B
:1004A0000000240027002A0000000000250028008A
:1004B0002B000404040404040404020202020202E5
:1004C0000303030303030102040810204080010218
:1004D0000408102001020408102041542B434D470A
:1004E000463D310D0A0041542B434D47463D310DE9
:1004F0000A0041542B434D47463D310D0A004154FB
:100500002B434D4744203D20312C340041542B4394
:100510004D4744203D20312C330041542B434D475F
:1005200044203D20312C3300000000002300260031
:1005300029006364696E6F70737578585B000040C2
:100540007A10F35A00A0724E18090010A5D4E800E2
:1005500000E87648170000E40B54020000CA9A3BFA
:10056000000000E1F5050000809698000000404280
:100570000F000000A086010000001027000000000E
:10058000E803000000006400000000000A00000012
:1005900000000100000000002C76D888DC674F08BE
:1005A00023DFC1DFAE59E1B1B796E5E3E453C63AC4
:1005B000E651997696E8E6C28426EB898C9B62ED3B
:1005C000407C6FFCEFBC9C9F40F2BAA56FA5F490F5
:1005D000055A2AF75C936B6CF9676DC11BFCE0E46C
:1005E0000D47FEF520E6B500D0ED902E03009435C2
:1005F00077050080841E080000204E0A000000C815
:100600000C333333330F986E12831141EF8D211465
:10061000893BE65516CFFEE6DB18D1844B381BF735
:100620007C1D901DA4BBE424203284725E228100D4
:10063000C9F124ECA1E53D27712711241FBECFEF9E
:10064000D8E0DEBFCDBF13E0A0E0B1E0ECE9FCE60E
:1006500002C005900D92A833B107D9F725E0A8E3B1
:10066000B3E001C01D92A630B207E1F713E0CDE17F
:10067000D3E004C02197FE010E94F628CC31D107B7
:10068000C9F70E94EE190C944C360C940000CF92DE
:10069000DF92EF92FF920F931F93CF93DF936C0142
:1006A0007A018B01C0E0D0E0CE15DF0589F0D801DA
:1006B0006D918D01D601ED91FC910190F081E02DBD
:1006C000C6010995892B11F47E0102C02196ECCF59
:1006D000C701DF91CF911F910F91FF90EF90DF90B5
:1006E000CF900895FC01918D828D981761F0828DD5
:1006F000DF01A80FB11D5D968C91928D9F5F9F7356
:10070000928F90E008958FEF9FEF0895FC01918DF7
:10071000828D981731F0828DE80FF11D858D90E064
:1007200008958FEF9FEF0895FC01918D228D892F01
:1007300090E0805C9F4F821B91098F7399270895E9
:1007400082E394E00E94940321E0892B09F420E0E5
:10075000822F0895FC01848DDF01A80FB11DA35ADB
:10076000BF4F2C91848D90E001968F739927848FD1
:10077000A689B7892C93A089B1898C9180648C93C8
:10078000938D848D981306C00288F389E02D8081B3
:100790008F7D80830895EF92FF920F931F93CF93E5
:1007A000DF93EC0181E0888F9B8D8C8D981305C0C1
:1007B000E889F989808185FD24C0F62E0B8D10E033
:1007C0000F5F1F4F0F731127E02E8C8DE8120CC0A6
:1007D0000FB607FCFACFE889F989808185FFF5CF4C
:1007E000CE010E94AA03F1CF8B8DFE01E80FF11D0F
:1007F000E35AFF4FF0820B8FEA89FB898081806288
:1008000007C0EE89FF896083E889F9898081806467
:10081000808381E090E0DF91CF911F910F91FF9055
:10082000EF900895CF93DF93EC01888D8823C9F072
:10083000EA89FB89808185FD05C0A889B9898C91E9
:1008400086FD0FC00FB607FCF5CF808185FFF2CF84
:10085000A889B9898C9185FFEDCFCE010E94AA03AA
:10086000E7CFDF91CF91089580E090E0892B29F0C8
:100870000E94A00381110C94000008953FB7F894E2
:100880008091C3039091C403A091C503B091C603A6
:1008900026B5A89B05C02F3F19F00196A11DB11DDB
:1008A0003FBFBA2FA92F982F8827820F911DA11D16
:1008B000B11DBC01CD0142E0660F771F881F991F53
:1008C0004A95D1F708952FB7F8946091BF037091BE
:1008D000C0038091C1039091C2032FBF089585ED9D
:1008E0008093BC008091BC0084FDFCCF1092FD037E
:1008F000089540919903262F30E0240F311D2132B5
:100900003105DCF42091FD032430C9F4FC0180E0C2
:1009100090E0861758F4309199032191DC01A95891
:10092000BC4FA30FB11D2C930196F3CF8091990377
:10093000680F6093990380E0089581E0089582E054
:100940000895089581E090E030917403209173033D
:10095000321710F480E090E0919581959109089507
:100960008091740390917303891730F48F5F8093A3
:10097000740380E090E008958FEF9FEF08958091D9
:10098000730390E020917403821B91090895CF9224
:10099000DF92EF92FF920F931F93CF93DF937C012F
:1009A000262F972F8A018091FE03882391F0C62F6E
:1009B000D72F6E01C40ED51ECC15DD0571F06991DF
:1009C000D701ED91FC910190F081E02DC7010995CF
:1009D000F3CF642F822F0E947904C801DF91CF9159
:1009E0001F910F91FF90EF90DF90CF900895CF93DC
:1009F000DF931F92CDB7DEB769832091FE032223D8
:100A0000D1F020912104203240F021E030E0FC01BF
:100A10003383228380E090E015C08091FF03E82FAC
:100A2000F0E0E050FC4F998190838F5F8093FF034B
:100A30008093210405C061E0CE0101960E947904F3
:100A400081E090E00F90DF91CF9108950E941F2CDC
:100A5000EF92FF920F931F93CF938C01FC01759639
:100A600084E0C0E060FF02C09081C92B6695815090
:100A700031968111F7CF413011F4F8014489F80122
:100A80008585C82BC42B7801FEE0EF0EF11CF80120
:100A900062896C2BC7010E94E80AF801628960959F
:100AA0006C23C701CF911F910F91FF90EF900C9491
:100AB000E80A0F931F93CF93DF93062F0F704230F6
:100AC00019F440E0602F10C0142F262FEC0130E005
:100AD000B90184E0759567958A95E1F7CE010E948A
:100AE0002805412F602FCE01DF91CF911F910F91EB
:100AF0000C942805FC0184858823A9F02185328582
:100B00002115310519F4611106C007C021303105E6
:100B100021F4611102C0858701C015866585CF016A
:100B20000E960C94E80A0895EF92FF920F931F938C
:100B3000CF93DF93FC01C081D181FB010081118142
:100B40008991882399F0082E000C990B0E94242C7F
:100B50007C01F80181918F01082E000C990B0E94F5
:100B6000242CE816F90661F380E001C081E0DF91F2
:100B7000CF911F910F91FF90EF9008950F931F93C6
:100B8000CF93DF93EC0188819981009729F02A8126
:100B90003B812617370788F48B016F5F7F4F0E94D8
:100BA000552B009761F0998388831B830A832C81DE
:100BB0003D81232B11F4FC01108281E001C080E013
:100BC000DF91CF911F910F910895EF92FF920F93B4
:100BD0001F93CF93DF93EC017B018A01BA010E943E
:100BE000BE052881398181110DC02115310519F00B
:100BF000C9010E94BD2A198218821D821C821B8293
:100C00001A8206C01D830C83B701C9010E94402CC3
:100C1000CE01DF91CF911F910F91FF90EF9008953A
:100C2000FC01808191810C94BD2AFC01118210820B
:100C300013821282158214826115710551F0FB0135
:100C400001900020E9F73197AF01461B570B0C9438
:100C5000E5050895BF92CF92DF92EF92FF920F9336
:100C60001F93CF93DF937C016B01EA018901241765
:100C7000350720F48D2FE901042F182F66E972E063
:100C8000C7010E941506D60114968D919C91159767
:100C9000C817D907C8F58017910708F48C01D60149
:100CA000ED91FC911197E00FF11FB08010824D91F2
:100CB0005C91BA016C0F7D1F6115710561F0FB013C
:100CC00001900020E9F73197AF01461B570BC70190
:100CD0000E94E50513C0F70180819181009711F012
:100CE0000E94BD2AD70111961C921E9215961C9245
:100CF0001E92149713961C921E921297D601ED9194
:100D0000FC91E00FF11FB082C701DF91CF911F91DD
:100D10000F91FF90EF90DF90CF90BF900895DC018E
:100D2000ED91FC910190F081E02D0994EF92FF92FA
:100D30000F931F93CF93DF938C017B01C0E0D0E032
:100D4000F701EC0FFD1F6491662361F0D801ED916E
:100D5000FC910190F081E02DC8010995892B11F0DB
:100D60002196EECFCE01DF91CF911F910F91FF9091
:100D7000EF9008956115710579F0FB010190002055
:100D8000E9F73197AF01461B570BDC01ED91FC9160
:100D90000280F381E02D099480E090E008950C94A6
:100DA000BA061F920F920FB60F9211242F933F9302
:100DB0004F935F936F937F938F939F93AF93BF9363
:100DC000EF93FF9382E394E00E94AA03FF91EF91D7
:100DD000BF91AF919F918F917F916F915F914F9153
:100DE0003F912F910F900FBE0F901F9018951F925B
:100DF0000F920FB60F9211242F938F939F93EF931F
:100E0000FF93E0914204F09143048081E091480413
:100E1000F091490482FD12C0908180914B048F5F54
:100E20008F7320914C04821751F0E0914B04F0E055
:100E3000EE5CFB4F958F80934B0401C08081FF9146
:100E4000EF919F918F912F910F900FBE0F901F9058
:100E50001895833081F028F4813099F08230A1F028
:100E600008958730A9F08830B9F08430D1F48091AA
:100E700080008F7D03C0809180008F7780938000F9
:100E8000089584B58F7702C084B58F7D84BD0895A1
:100E90008091B0008F7703C08091B0008F7D8093E8
:100EA000B00008951F93CF93DF93282F30E0F9010E
:100EB000EF56FE4F8491F901EA53FB4FD491F901AB
:100EC000EE54FB4FC491CC23C9F0162F81110E9420
:100ED0002907EC2FF0E0EE0FFF1FE855FB4FA5911F
:100EE000B4918FB7F894111105C09C91ED2FE09546
:100EF000E92302C0EC91ED2BEC938FBFDF91CF91F2
:100F00001F910895CF93DF9390E0FC01EA53FB4FCC
:100F10002491FC01EE54FB4F8491882361F190E011
:100F2000880F991FFC01E256FB4FC591D491FC013B
:100F3000E855FB4FA591B491611109C09FB7F89492
:100F40008881209582238883EC912E230BC0623008
:100F500061F49FB7F8943881822F8095832388832A
:100F6000EC912E2B2C939FBF06C08FB7F894E8818D
:100F70002E2B28838FBFDF91CF9108958F929F9260
:100F8000AF92BF92CF92DF92EF92FF926B017C0102
:100F90000E943E044B015C01C114D104E104F10440
:100FA000F1F00E943E04DC01CB0188199909AA09DD
:100FB000BB09883E9340A105B10570F321E0C21A38
:100FC000D108E108F10888EE880E83E0981EA11C84
:100FD000B11CC114D104E104F10419F7DDCFFF9075
:100FE000EF90DF90CF90BF90AF909F908F9008953B
:100FF0001F920F920FB60F9211242F933F938F934E
:101000009F93AF93BF938091BF039091C003A09132
:10101000C103B091C2033091BE0323E0230F2D37EB
:1010200020F40196A11DB11D05C026E8230F0296EC
:10103000A11DB11D2093BE038093BF039093C003F5
:10104000A093C103B093C2038091C3039091C403E2
:10105000A091C503B091C6030196A11DB11D809357
:10106000C3039093C403A093C503B093C603BF9179
:10107000AF919F918F913F912F910F900FBE0F9045
:101080001F9018951F920F920FB60F9211242F9355
:101090003F934F935F936F937F938F939F93AF9300
:1010A000BF93EF93FF938091B900887F803609F456
:1010B0009CC068F5883209F45BC090F4803109F473
:1010C00054C038F4882309F4F6C0883009F44DC0C0
:1010D000F6C0883109F44CC0803209F45DC0EFC01D
:1010E000803409F468C048F4803309F455C088336B
:1010F00009F0E5C08093FB03D8C0803509F44FC0E8
:10110000883509F45DC0883409F0D9C0D6C0883963
:1011100009F4C7C0A8F4883709F467C038F48836E2
:1011200009F463C0803709F460C0C9C0883809F485
:10113000B8C0803909F45FC0803809F0C0C05BC016
:10114000803B09F486C038F4803A09F466C0883AD6
:1011500009F47FC0B4C0803C09F4A7C0883C09F4FE
:10116000A4C0883B09F48AC0AAC08091D80310C0EB
:101170009091FA038091F903981770F5E091FA03C2
:1011800081E08E0F8093FA03F0E0E752FC4F8081FC
:101190008093BB0085EC86C08093FB038EC0E091FA
:1011A000FA0381E08E0F8093FA038091BB00F0E098
:1011B000E752FC4F80839091FA038091F9036EC04F
:1011C000E091FA0381E08E0F8093FA038091BB00D7
:1011D000F0E0E752FC4F80838091FC0381116DC0E9
:1011E00081E08093D70384EA61C083E08093FD03AC
:1011F0001092BD03CFCF8091BD03803208F051C063
:10120000E091BD0381E08E0F8093BD038091BB0010
:10121000F0E0E356FC4F8083BDCF85EC8093BC00AB
:101220001092FD038091BD03803230F4E091BD0344
:10123000F0E0E356FC4F10826091BD0370E0E09156
:101240009B03F0919C038DE993E009951092BD03F7
:1012500036C084E08093FD0310929A0310929903A4
:10126000E0919703F091980309958091990381117A
:1012700005C081E08093990310927703E0919A036F
:1012800081E08E0F80939A03F0E0E958FC4F808153
:101290008093BB0090919A0380919903981708F46A
:1012A00079CF85E88093BC000AC085EC8093BC00B0
:1012B0001092FD0304C01092FB030E946F04FF9183
:1012C000EF91BF91AF919F918F917F916F915F91BE
:1012D0004F913F912F910F900FBE0F901F90189537
:1012E0001F920F920FB60F9211240F900FBE0F9006
:1012F0001F90189521E001C0220F6A95EAF7DC01E2
:101300001C962C931C971A965C934E931997ED910B
:10131000FC910084F185E02D60E00994DC01ED9101
:10132000FC910284F385E02D41E0099581E090E095
:10133000089508950895EF92FF920F931F93CF930E
:10134000DF9300D0CDB7DEB78C017B01FB0160815C
:101350009A838983CE0101960E946717F701618104
:101360000F5F1F4F1A830983CE0101960E946717F2
:10137000C7010F900F90DF91CF911F910F91FF90B8
:10138000EF900895CF92DF92EF92FF920F931F9309
:10139000CF93DF93EB017B0124E0E20EF11C8B0184
:1013A0006C01C61AD70AC601800F911F0E94FF3533
:1013B000F80181938F01EE15FF05A9F7CE01DF91AA
:1013C000CF911F910F91FF90EF90DF90CF900895F4
:1013D000CF92DF92EF92FF920F931F93CF93DF9301
:1013E000EB017B0124E0E20EF11C8B016C01C61ABB
:1013F000D70AC601800F911F0E94FF35F801819323
:101400008F01EE15FF05A9F7CE01DF91CF911F9156
:101410000F91FF90EF90DF90CF900895DC01ED9158
:10142000FC910284F385E02D40E00994FC01658184
:101430006D7F658368600C940E0ACF93DF93CDB700
:10144000DEB728970FB6F894DEBF0FBECDBFFC0104
:101450001D8280E48E8394E19F8394E598871982AE
:101460008A8380E18B8380E58C838781481710F025
:101470004FEF480F908550E0DE01A40FB51F90316B
:1014800029F4843019F411969C9102C015969C9110
:10149000690F6068CF0128960FB6F894DEBF0FBEC3
:1014A000CDBFDF91CF910C940E0A61E00E940E0A2D
:1014B0008BE39FE10197F1F708950F931F93CF936B
:1014C000DF93EC01423018F08C8188608C834F836D
:1014D0006887222329F0413019F48C8184608C8341
:1014E00064E670E080E090E00E94BE076C8164FDDD
:1014F00031C0E881F9810284F385E02D42E063E0A8
:10150000CE0109958BE496E40197F1F7E881F98122
:101510000284F385E02D42E063E0CE01099503E506
:1015200012E0C8010197F1F7E881F9810284F3859F
:10153000E02D42E063E0CE010995C8010197F1F783
:10154000E881F9810284F385E02D42E062E0CE017A
:10155000099517C06062CE010E940E0A8BE496E4E2
:101560000197F1F76C816062CE010E940E0A03E5DB
:1015700012E0C8010197F1F76C816062CE010E9410
:101580000E0AC8010197F1F76C816062CE010E94DA
:101590000E0A8BEE90E00197F1F784E08D836CE00A
:1015A000CE010E940E0ACE010E94550A82E08E836F
:1015B00066E0CE010E940E0AE881F9810084F1857F
:1015C000E02D6FEFCE01DF91CF911F910F91099424
:1015D000FC0123812223B9F09181909569236083D6
:1015E000828191E09093FE03809320041092FF0388
:1015F0001092210482E294E00E94F7040E940C19E8
:10160000282F30E002C020E030E081E090E0232B82
:1016100011F080E090E00895EF92FF920F931F93F6
:10162000CF93DF93EC01062FF42EE22E8B85888B6F
:1016300010927403109273031092FF03109221040E
:101640001092FD0311E01093FC031092D70361E0A8
:1016500082E10E94520761E083E10E94520780917B
:10166000B9008E7F8093B9008091B9008D7F8093FF
:10167000B90088E48093B80085E48093BC00888931
:101680001093FE03809320041092FF031092210414
:101690000E940C1991E0811190E0998B992329F017
:1016A00082E294E00E94B0048E878989882339F011
:1016B0001F861C8260E0CE010E960E94E80A2E2D45
:1016C0004F2D602FCE01DF91CF911F910F91FF9091
:1016D000EF900C945D0AAF92BF92CF92DF92EF929F
:1016E000FF920F931F93CF93DF93CDB7DEB7C25610
:1016F000D1090FB6F894DEBF0FBECDBF5C01BE01AD
:10170000615A7F4F88EC90E00E94E809BE01655A5B
:101710007F4F8CE890E00E94E80966EE74E082E377
:1017200094E00E9496062FEF81EE94E021508040D5
:101730009040E1F700C00000A3968FADA3978F9370
:10174000A2968FADA2978F93A1968FADA1978F93FD
:10175000A0968FADA0978F9380E8C82E82E0D82EF8
:10176000DF92CF9295E8E92E92E0F92EFF92EF9268
:101770008E010F5F1F4F1F930F930E94472CB801DC
:1017800082E394E00E94CF062FEF81EE94E0215097
:1017900080409040E1F700C00000B50182E394E092
:1017A0000E94CF062FEF80E792E0215080409040CA
:1017B000E1F700C0000064E972E082E394E00E9477
:1017C000CF062FEF81EE94E0215080409040E1F76A
:1017D00000C000006AE182E394E00E948F062FEFD0
:1017E00083ED90E3215080409040E1F700C000007D
:1017F0006AED74E082E394E00E9496062FEF81EE9A
:1018000094E0215080409040E1F700C000006F96C6
:101810008FAD6F978F936E968FAD6E978F936D96FA
:101820008FAD6D978F936C968FAD6C978F93DF9282
:10183000CF92FF92EF921F930F930E94472CB80113
:1018400082E394E00E94CF062FEF81EE94E02150D6
:1018500080409040E1F700C00000B50182E394E0D1
:101860000E94CF062FEF80E792E021508040904009
:10187000E1F700C0000064E972E082E394E00E94B6
:10188000CF062FEF81EE94E0215080409040E1F7A9
:1018900000C000006AE182E394E00E948F062FEF0F
:1018A00081EE94E0215080409040E1F700C00000BC
:1018B0000FB6F894DEBF0FBECDBFCE59DF4F0FB6C7
:1018C000F894DEBF0FBECDBFDF91CF911F910F9176
:1018D000FF90EF90DF90CF90BF90AF9008953F9230
:1018E0004F925F926F927F928F929F92AF92BF9230
:1018F000CF92DF92EF92FF920F931F93CF93DF93DC
:10190000CDB7DEB7C754D1400FB6F894DEBF0FBED7
:10191000CDBF66E972E0CE01885C9E4F0E9415063D
:101920003E0121EF620E711C8EE1E2EEF2E0D30186
:1019300001900D928A95E1F75E0181EFA81A8EEF72
:10194000B80A81E1E0E0F3E0D50101900D928A95BB
:10195000E1F787E992E00E94AF1962E370E080E06E
:1019600090E00E94BE078CE992E00E94AF1962E30A
:1019700070E080E090E00E94BE0788EA92E00E945A
:10198000AF1962E370E080E090E00E94BE070E9421
:1019900063046B017C0182E394E00E949403892B31
:1019A00069F40E946304DC01CB018C199D09AE0926
:1019B000BF09813D9740A105B105B0F582E394E0F0
:1019C0000E949403892B39F382E394E00E9472030E
:1019D00089831A82C45CDE4F08811981CC53D140BF
:1019E0000F5F1F4FB801CE01885C9E4F0E94BE055D
:1019F000882389F2C85CDE4F28813981C853D140E1
:101A0000C45CDE4F88819981CC53D140BE016F5FA9
:101A10007F4F820F931F0E94402CC45CDE4F1983BE
:101A20000883CC53D140B7CFC45CDE4F8881998105
:101A3000CC53D140CA5BDE4F99838883C654D140D2
:101A400001E010E06E0197E9C90ED11CFE0131964C
:101A50007F0182ED482E84E0582ECA5BDE4FE8817C
:101A6000F981C654D140E017F10708F4E9C16FEBE2
:101A700072E0C6010E9415064801F4E08F0E911C29
:101A80009401A801BE01685C7E4FC7010E942A062E
:101A90008D819E81F601248135818217930741F45F
:101AA000892B41F0B601C7010E949405382E04C06D
:101AB000312C02C033243394C7010E941006C601A2
:101AC0000E941006332009F449C08AE195E00E9483
:101AD000691962E370E080E090E00E94BE076AE46A
:101AE00073E08AE590E00E94C20962E473E08EE14F
:101AF00090E00E94C209609142037091430380917B
:101B00004403909145038E01025D1E4F22E046E0A2
:101B10000E941132F82EE92E60914A0370914B0316
:101B200080914C0390914D030E50110922E046E044
:101B30000E941132EF92FF92BF92AF929F938F93C8
:101B40007F926F9284EC92E09F938F93DF92CF927B
:101B50000E94472CC6010E946B0BEAC068ED72E040
:101B6000C6010E9415069401A801BE01685C7E4F63
:101B7000C7010E942A068D819E81F601248135814C
:101B80008217930751F4892B31F0B601C7010E94E7
:101B90009405382E02C033243394C7010E941006E6
:101BA000C6010E941006332009F4C8C08CE095E0FD
:101BB0000E946919FFEF20E782E0F1502040804049
:101BC000E1F700C000006AE473E08AE590E00E945B
:101BD000C20962E473E08EE190E00E94C209BE0196
:101BE0006E5B7E4F8CE890E00E94E80960914203B2
:101BF0007091430380914403909145038E01025DEF
:101C00001E4F22E046E00E941132982E892E6091EC
:101C10004A0370914B0380914C0390914D030E50F9
:101C2000110922E046E00E9411328F929F92BF92EA
:101C3000AF929F938F937F926F9284EC92E09F93E9
:101C40008F93DF92CF920E94472CBE01625C7E4F41
:101C50008CE890E00E94E80962EF74E082E394E08F
:101C60000E9496069FEFE1EEF4E09150E040F040D4
:101C7000E1F700C00000CF5BDE4F8881C154D14046
:101C80008F93C05CDE4F8881C054D1408F93C15C7C
:101C9000DE4F8881CF53D1408F93C25CDE4F888165
:101CA000CE53D1408F9380E892E09F938F9385E845
:101CB00092E09F938F93FF92EF920E94472CB7017F
:101CC00082E394E00E94CF062FEF81EE94E0215052
:101CD00080409040E1F700C00000B60182E394E04C
:101CE0000E94CF06EFEFF0E722E0E150F040204005
:101CF000E1F700C0000064E972E082E394E00E9432
:101D0000CF068FEF91EEE4E081509040E040E1F7A4
:101D100000C000006AE182E394E00E948F06FFEFBA
:101D200023E284EFF15020408040E1F700C0000042
:101D30000FB6F894DEBF0FBECDBF82C06DED72E06E
:101D4000C6010E9415069401A801BE01685C7E4F81
:101D5000C7010E942A068D819E81F601248135816A
:101D60008217930751F4892B31F0B601C7010E9405
:101D70009405382E02C033243394C7010E94100604
:101D8000C6010E941006332009F457C019821A8236
:101D90001B821C82B70184E190E00E947C191982A9
:101DA0001A821B821C82B7018EE190E00E947C198E
:101DB00019821A821B821C82B7018AE590E00E9478
:101DC0007C1919821A821B821C82B70184E190E07F
:101DD0000E947C1988E790E09A838983B7018CE39D
:101DE00090E00E949B0919821A821B821C82B70113
:101DF0008EE190E00E947C1919821A821B821C825B
:101E0000B70186E490E00E947C195A824982B701AA
:101E100080E090E00E949B095A824982B70184E0E9
:101E200090E00E949B098EEF94E00E94691962E3A2
:101E300070E080E090E00E94BE070F5F1F4F0DCE64
:101E4000CE01885C9E4F0E941006C95BDE4F0FB624
:101E5000F894DEBF0FBECDBFDF91CF911F910F91E0
:101E6000FF90EF90DF90CF90BF90AF909F908F90BA
:101E70007F906F905F904F903F9008954F925F9248
:101E80006F927F928F929F92AF92BF92CF92DF928A
:101E9000EF92FF920F931F93CF93DF93EC010E9479
:101EA00063044B015C014F856E85809140039091E6
:101EB00041030E941D0A68817981809140039091BD
:101EC00041030E94CF064F856E858091400390911B
:101ED00041030E941D0A8091400390914103DC015F
:101EE00015966C911597262F226015962C936A6093
:101EF0000E940E0A10E000E28EE2D82E9DE2C92E6A
:101F00000E946304DC01CB0188199909AA09BB0965
:101F1000803C944DA140B10518F00E9463048EC02E
:101F20000E9463044090C7035090C8036090C903A7
:101F30007090CA03DC01CB0184199509A609B70981
:101F400080319742A105B10558F00E946304609367
:101F5000C7037093C8038093C9039093CA03A895DD
:101F600082E390E00E94F011FC013197EA30F10524
:101F700008F067C0E25CFF4F0C94F628E12EF12CCC
:101F8000E881F981EE0DFF1DC08269C0E12EF12CC0
:101F9000E881F981EE0DFF1DD08261C08091400380
:101FA00090914103112311F0115030C00E94160A84
:101FB0008DEF9FEF75C0212F30E0E881F981E20FAE
:101FC000F31F00838091400390914103DC01ED9168
:101FD000FC9148815981DA01A20FB31F0190F08171
:101FE000E02D6C910995112309F450C011504EC099
:101FF000412F50E0288930E0215031098091400381
:1020000090914103421753072CF41F5F6E85610FB7
:102010004F8543C00E94160A8CEF9FEF41C080910C
:102020004003909141030E94160A81E090E038C07D
:1020300080914003909141030E94160A8FEF9FEF19
:102040002FC09C01205331092A30310508F058CFA8
:10205000E12EF12CE881F981EE0DFF1D8083809146
:10206000400390914103DC01ED91FC91A881B9817D
:10207000AE0DBF1D0190F081E02D6C91099588890E
:1020800090E00197E816F9060CF41F5F6E85610F6A
:102090004F8580914003909141030E941D0A30CFEB
:1020A000DF91CF911F910F91FF90EF90DF90CF9034
:1020B000BF90AF909F908F907F906F905F904F9068
:1020C0000895FC0184850895FC0193859F3F39F0B4
:1020D0000784F089E02DE90FF11D8081089580E0EB
:1020E0000895CF93DF93EC018B819C81DC01ED910E
:1020F000FC910480F581E02D0995892B51F08B81AD
:102100009C81DC01ED91FC910680F781E02D099521
:1021100001C080E0DF91CF91089580E0089580E0D4
:102120000895709321016093200108957093230115
:1021300060932201089570931F0160931E0108951A
:102140007093270160932601089570932501609391
:1021500024010895FC01828108950F931F93CF936A
:10216000DF93EC01E881F9810288F389E02D09957C
:10217000182F8C85823009F457C030F4882361F021
:10218000813009F44DC0A9C0843009F46CC008F452
:1021900078C0853069F0A1C01F3F09F43FC00E949C
:1021A00063046C837D838E839F8385E08C8795C0D9
:1021B0001F3F99F18B85811329C00E9463040C8114
:1021C0001D812E813F81AB01BC01401B510B620B75
:1021D000730B8091260190912701A0E0B0E0841755
:1021E0009507A607B70708F078C081E08C870E94A2
:1021F00063046C837D838E839F836093CB03709392
:10220000CC038093CD039093CE035EC00E94630401
:102210006C837D838E839F8301C01C861B875DC07A
:102220001F3F29F082E004C08B85811719F084E0FC
:102230008C8720C00E9463040C811D812E813F8108
:10224000AB01BC01401B510B620B730B809124014D
:1022500090912501A0E0B0E084179507A607B70785
:10226000E0F583E0E5CF1F3F11F41C8636C085E022
:102270008C871B870E9463046C837D838E839F837E
:102280002CC08B85811719F084E08C8717C00E94C1
:1022900063040C811D812E813F81AB01BC01401B79
:1022A000510B620B730B8091220190912301A0E0EE
:1022B000B0E084179507A607B70778F40E94630477
:1022C0006C837D838E839F838B858F3F31F0EF8579
:1022D000F889E80FF11D808101C080E0DF91CF9186
:1022E0001F910F910895AF92BF92CF92DF92EF921C
:1022F000FF920F931F93CF93DF937C01B12CD701F3
:1023000018968C91B81608F05FC0C12C0B2D10E008
:10231000F7018185C81608F055C0CC2DD0E0D70153
:1023200018968C9118971D96ED91FC911E97EC0FC5
:10233000FD1FE80FF11D60E080810E945207D70168
:102340001D96ED91FC911E97E00FF11F208130E06A
:10235000F901EF56FE4F8491F901EA53FB4FA49027
:10236000F901EE54FB4FD490DD2079F081110E94E9
:102370002907ED2DF0E0EE0FFF1FE85DFA4FA59164
:10238000B491EC91AE2281E009F480E0F7018287FC
:10239000808525853685C20FD31FC80FD11D61E00A
:1023A00088810E945207D7011A968C911A97811141
:1023B00007C019968C91B89EC00C11248C2D05C0B5
:1023C000C394A6CFB3949BCF8FEFDF91CF911F9192
:1023D0000F91FF90EF90DF90CF90BF90AF90089556
:1023E0008F929F92AF92BF92CF92DF92EF92FF9225
:1023F000CF936C010E9463044B015C010D2C000C17
:10240000EE08FF08C0E090913E0380913F03E92F62
:10241000F82FEC0FF11DEC0FF11D808191810097D9
:1024200041F1DC01ED91FC910190F081E02D0995E5
:102430008823E9F0982FE0913C03F0913D0320E0E0
:102440006191719130E0DB01A30FB11D4C914423E8
:1024500039F0841303C091E0920F05C03F5FF3CFC2
:102460002F5F263069F7892F990F990B12C0CF5F24
:10247000CACF0E946304DC01CB0188199909AA091B
:10248000BB098C159D05AE05BF0508F4BBCF80E0E8
:1024900090E0CF91FF90EF90DF90CF90BF90AF9002
:1024A0009F908F9008952F923F924F925F926F92DC
:1024B0007F928F929F92AF92BF92CF92DF92EF92D4
:1024C000FF920F931F93CF93DF93CDB7DEB7AB97F8
:1024D0000FB6F894DEBF0FBECDBF8C010E9463041F
:1024E0006F8F78A389A39AA321E0298FE12CF12C87
:1024F000AE014F5F5F4F3A010E946304DC01CB01E4
:102500002F8D38A149A15AA1821B930BA40BB50BA7
:10251000803C944DA140B10518F00E946304DDC3D6
:102520000E9463048090D3039090D403A090D503BD
:10253000B090D603DC01CB0188199909AA09BB091F
:10254000803C9D45A105B10558F00E94630460934D
:10255000D3037093D4038093D5039093D603A895A7
:102560000E9463048090CF039090D003A090D10389
:10257000B090D203DC01CB0188199909AA09BB09E3
:10258000883C9F4AA105B10560F00E9463046093F6
:10259000CF037093D0038093D1039093D2030E9412
:1025A0006F0C8FE7E816F10421F0298D222309F43E
:1025B00029C3D8011B96BC91BA8FF80122842B9EA7
:1025C000B02C1124F585FD8FD8011C96BC91BE8FCF
:1025D0000E94630424EF31E040E050E00E94B528FF
:1025E00069017A01F8018089853110F084E1808BDE
:1025F000D80151964C91519712968D919C911397B9
:1026000016962D913C9117976B2D70E045FF12C0E7
:102610004B2D4695382E341A37FC12C0841B910975
:10262000680F791F2617370764F433243394320E6A
:102630003B1807C00E94A128B69E302C112401C06F
:10264000312C8FEF8B0D830D888F90E02817390781
:102650000CF4288F198EE32DF0E0FC8FEB8FEB0D3F
:10266000F11DFCA3EBA3222D30E03EA32DA3432CB0
:10267000512CEBA1FCA14E165F060CF073C1388DF6
:10268000331528F4D80150968C91F301F8C0F80165
:1026900021893289C901887099270190F081E02D44
:1026A00030FF84C0892B09F460C0D80112968D9147
:1026B0009C9113974816590609F057C0C201880F1C
:1026C000991FE80FF91FA080B180F501019000204B
:1026D000E9F731979F012A193B0950969C90892D63
:1026E00090E08217930708F040C0280F391F40E0A0
:1026F00050E0C701B6010E94D7286B017C01C918C0
:10270000D108E108F1089601892D990C990BE22F67
:10271000EC196E2F70E06817790704F537FD0CC0CF
:10272000D5010D900020E9F7AD014A195B0942502F
:1027300051094217530738F4A3014E0F511DFA01F6
:1027400050E2508308C0F501E20FF31F4081F3010E
:10275000E60FF71F40832F5F3F4FD9CFF301E80FFC
:10276000F91F108221E0298FB4C0D80150964C91F6
:10277000509750E04F5F5F4FED91FC91C201880F81
:10278000991FE80FF91F60817181C3010E945532C2
:10279000F8019089891708F09CC0F301E80FF11D3A
:1027A00020E220838F5F8913F8CF8FC0892B09F433
:1027B0006DC0D80112968D919C91139748165906B9
:1027C00009F064C05201AA0CBB1CAE0EBF1EF5017D
:1027D000859194910E944C32F801F089FF8B8F2EE5
:1027E000912C8816990608F051C0F50185919491B5
:1027F0000E944C32880D991D9C0140E050E0C701B9
:10280000B6010E94D7286B017C01BF89CB1AD10881
:10281000E108F1084601F50145915491AB2EBB0F3B
:10282000BB08282D2C19622F70E06A157B0504F572
:1028300097FC6DC2CA012FA34AA75BA768A779A717
:102840000E944C3201972FA14AA55BA568A579A5E6
:102850008815990508F45BC2FA01E80DF91DE491A9
:10286000D301A60FB71FEC932FEF821A920AD9CF8C
:10287000F301EA0DFB1D108231E0398F2AC09E2F33
:102880009619981710F550E25193F9CFD801ED91B0
:10289000FC91C201880F991FE80FF91F659174918F
:1028A000F801408950E04F5F5F4FC3010E9438320A
:1028B000D80150969C91891760F4F301E80FF11D3F
:1028C00040E240838F5F8913F8CFF301E80FF11DD9
:1028D0001082C201AB8DBC8D8A1B9B0B6DA17EA1AA
:1028E0000E94A128F8014785480F8089869F600DC6
:1028F00011249685690F80914003909141030E94B5
:102900001D0AD80151968C9180FF23C0809140030D
:1029100090914103B88DB315A0F0DC01ED91FC91CD
:102920000190F081E02DD80112962D913C911397E2
:102930004216530619F4609139030AC060913803B6
:1029400007C0DC01ED91FC910190F081E02D60E287
:102950000995B30180914003909141030E94CF06F5
:10296000339485CED80151968C9181FF34C04E8D21
:102970006D8D80914003909141030E941D0AF12CBE
:102980008F2D90E0D80116962D913C91179728171E
:1029900039070CF464C0F80122813381A09140030F
:1029A000B0914103ED91FC9111978217930731F497
:1029B0000190F081E02D6091390309C08F2D6AE00C
:1029C0000E94952861E3690F0190F081E02DCD010F
:1029D0000995F394D5CF82FF42C0F80166817781D3
:1029E00082819381409139039B012F5F3F4F693072
:1029F000710574F43F932F9301969F938F93842FC7
:102A0000042E000C990B9F934F93A1E1B3E00DC0EE
:102A10003F932F9301969F938F93842F042E000C46
:102A2000990B9F934F93A9E1B3E0BF93AF937F922C
:102A30006F920E94472C0FB6F894DEBF0FBECDBF39
:102A40004E8D6D8D80914003909141030E941D0A2F
:102A5000B30180914003909141030E94CF06D801B9
:102A600051968D919C91529786FD31C0F8018189D4
:102A7000E0914003F091410384FFBDC0D80112965C
:102A80008D919C9113972B8D3C8D821B930B622D06
:102A900070E00E94A128D8011F964C911F97480F03
:102AA00050968C915097869F600D11241E969C9194
:102AB000690FCF010E941D0A80914003909141034C
:102AC000FC016581262F21602583696099C0D801AA
:102AD0001F968C901F9750962C9150979A8C929E8F
:102AE000900C11241E962C91920E81709927B1E0C2
:102AF0008B27981AF801228133812F5F3F4F44E6DC
:102B0000429FC001439F900D1124668177816F5FC2
:102B10007F4F0E94A128A22CB12CF1E0AF1AB1087E
:102B20009501220F331F643608F063E6629FC001EF
:102B3000639F900D112464E670E00E94A1286B0150
:102B40002FEFC21AD20A2601D7FE03C03FEF431A65
:102B5000530A55944794E12CF12C3E2CE21408F0D2
:102B600085CF482D4E0D692D8091400390914103F2
:102B70000E941D0A8091400390914103E414F504E2
:102B800029F5311008C0DC01ED91FC910190F08134
:102B9000E02D60E02BC0EA14FB0441F4DC01ED9170
:102BA000FC910190F081E02D65E020C09701220F9B
:102BB000331FDC01ED91FC910190F081E02DC216F4
:102BC000D30611F462E012C063E010C0DC01ED91A5
:102BD000FC910190F081E02D311002C061E006C04F
:102BE000EA14FB0411F464E001C060E20995BFEF50
:102BF000EB1AFB0AB2CF65816E7F65836860CF01F7
:102C00000E940E0A82E390E00E94F011D8011B9608
:102C10003C911B971A962C918730910508F060C063
:102C2000FC01E85BFF4F0C94F628E12CF12C64CCFE
:102C3000F801828193811816190614F4019727C0B0
:102C4000D8018681978113969C938E9312973FE7C4
:102C5000E32EF12C51CCF8018281938126813781BA
:102C60008217930714F4019612C0D80113961C9290
:102C70001E921297ECCF32300CF44FC0F8018281D3
:102C80009381821B910927FD939597FD46C09383FD
:102C90008283DDCF32300CF445C0D80112968D917D
:102CA0009C911397820F911D27FD9A9516962D9151
:102CB0003C9117972817390734F634C080914003A8
:102CC000909141030E94160A81E090E030C080910B
:102CD0004003909141030E94160A8FEF9FEF27C097
:102CE000F80142815381CA01329F800D911D112448
:102CF0009C0186819781821793071CF0338322837E
:102D0000A6CF4817590709F4B0CFD8019CCFF301DB
:102D1000E20FF11DB0E2B083A7CD9EEFE92EFF24B4
:102D2000FA94EACB8DEFE82EFF24FA94E5CBAB962C
:102D30000FB6F894DEBF0FBECDBFDF91CF911F91CC
:102D40000F91FF90EF90DF90CF90BF90AF909F904A
:102D50008F907F906F905F904F903F902F9008954D
:102D60000F931F93CF93DF93EC0110E000E02091CD
:102D70003A0330913B03412F50E042175307CCF503
:102D800035952795FE0101900020E9F73197EC1B5E
:102D9000FD0BDF01B695A795BD016E1B7F0B620F82
:102DA000731F80914003909141034617570740F4E9
:102DB000DC01ED91FC910190F081E02D6EE30CC0FF
:102DC0002A0F3B1FDC01ED91FC914217530730F0B5
:102DD0000190F081E02D6CE3099509C0DE01A00FA0
:102DE000B11D0190F081E02D6C9109950F5F1F5F7F
:102DF000BECFDF91CF911F910F9108950F931F9335
:102E0000CF93DF938C01EB010E94FF358883C801CB
:102E100001960E94FF358983CE01DF91CF911F91EA
:102E20000F910895CF92DF92EF92FF920F931F932D
:102E3000CF93DF93EB017B0124E0E20EF11C8B01C9
:102E40006C01C61AD70AC601800F911F0E94FF3578
:102E5000F80181938F01EE15FF05A9F7CE01DF91EF
:102E6000CF911F910F91FF90EF90DF90CF90089539
:102E700062E473E08EE190E00E94121789EE94E024
:102E80000E94550A83E293E00E94B01641E060E0A0
:102E900089EE94E00E941D0A609142037091430301
:102EA000809144039091450342E00E94311841E033
:102EB00068E089EE94E00E941D0A66ED72E089EEFA
:102EC00094E00E94CF0680ED97E00C94F011EF9211
:102ED000FF920F931F93CF93DF931F92CDB7DEB76F
:102EE0007C01FC0100811181C80169830E94FF35CA
:102EF0006981681719F0C8010E940736C7010F9051
:102F0000DF91CF911F910F91FF90EF900895AF92B5
:102F1000BF92CF92DF92EF92FF920F931F93CF93C6
:102F2000DF9300D0CDB7DEB78B016B0124E0C20E7A
:102F3000D11C7B015C01A61AB70A95012E0D3F1D1D
:102F4000F70161917F013A832983CE0101960E94A6
:102F50006717EC14FD0489F7C8010F900F90DF91FB
:102F6000CF911F910F91FF90EF90DF90CF90BF9086
:102F7000AF9008951F920F920FB60F9211242F93C6
:102F80003F934F935F936F937F938F939F93AF93F1
:102F9000BF93EF93FF9366E473E084E190E00E94B7
:102FA000871762E473E08EE190E00E9487176AE47D
:102FB00073E08AE590E00E948717FF91EF91BF913F
:102FC000AF919F918F917F916F915F914F913F91C1
:102FD0002F910F900FBE0F901F9018958F929F9278
:102FE000AF92BF920F931F93CF93DF93CDB7DEB70E
:102FF000A1970FB6F894DEBF0FBECDBF19A2423025
:1030000008F44AE08E010F5D1F4F842E912CA12CF5
:10301000B12CA50194010E94B528E62FB901CA017F
:1030200001501109EA3014F4E05D01C0E95CD801F7
:10303000EC93232B242B252B61F7B80189EE94E028
:103040000E94BA06A1960FB6F894DEBF0FBECDBFA0
:10305000DF91CF911F910F91BF90AF909F908F9074
:1030600008954F925F926F927F928F929F92AF924C
:10307000BF92CF92DF92EF92FF926B017C01B42E50
:103080009B01AC010E94232A882319F06CE273E0B3
:1030900027C026013701E89477F82FEF3FEF4FE77D
:1030A0005FE7C301B2010E94232A81110DC02FEFF7
:1030B0003FEF4FE75FE7C301B2010E94D834181613
:1030C0001CF460E373E00CC02FEF3FEF4FE75FE4C9
:1030D000C701B6010E941E2A181694F464E373E037
:1030E00089EE94E0FF90EF90DF90CF90BF90AF908B
:1030F0009F908F907F906F905F904F900C94BA0646
:103100002FEF3FEF4FE75FECC701B6010E94D834C5
:1031100087FDE4CF20E030E0A901C701B6010E949D
:10312000D83487FF0BC06DE289EE94E00E948F06D1
:103130004C01F7FAF094F7F8F09402C0812C912C2E
:10314000A12C60E070E080E09FE3AB1441F020E050
:1031500030E040E251E40E947D29A394F6CF9B0128
:10316000AC01C701B6010E9411292B013C010E944C
:10317000EF296B017C010E94DD349B01AC01C3018E
:10318000B2010E9410292B013C014AE0C701B6019F
:103190000E94EE177C01E80CF91CBB2041F061E7AE
:1031A00072E089EE94E00E94BA06E80EF91EDB2C6C
:1031B000DD2021F120E030E040E251E4C301B20122
:1031C0000E943E352B013C010E94EF294B01A12CAE
:1031D000B12C4AE0C501B4010E94EE17E80EF91EB9
:1031E000C501B4010E94DD349B01AC01C301B201F1
:1031F0000E9410292B013C01DA94DACFC701FF901D
:10320000EF90DF90CF90BF90AF909F908F907F9086
:103210006F905F904F900895209121049091200429
:10322000213208F04AC08091FD038111FCCF32E0C9
:103230003093FD0331E03093FC033FEF3093FB0309
:103240001092FA032093F903A0E0B4E049ED53E0B3
:10325000FA013E2F341B321718F43D913193F9CF08
:103260001092D8032091D803990F922B9093D803F2
:103270009091D703913061F41092D7039091D803C5
:103280009093BB009091BC0093FDF8CF95EC01C0EA
:1032900095EE9093BC009091FD039230E1F39091F4
:1032A000FB039F3F79F08091FB03803241F08091D6
:1032B000FB03803331F084E005C081E003C082E08D
:1032C00001C083E01092FF03109221041092FE03CC
:1032D0000895CF93DF93BC0182E394E00E949606A9
:1032E000EC0164E972E082E394E00E94BA068C0F7C
:1032F0009D1FDF91CF910895AF92BF92CF92DF9241
:10330000EF92FF920F931F93CF93DF9300D0CDB72F
:10331000DEB78B016B0124E0C20ED11C7B015C0186
:10332000A61AB70A95012E0D3F1DF70161917F0185
:103330003A832983CE0101960E946717EC14FD049D
:1033400089F7C8010F900F90DF91CF911F910F91D6
:10335000FF90EF90DF90CF90BF90AF900895CF9304
:10336000DF93BC0182E394E00E94BA06EC0164E9B9
:1033700072E082E394E00E94BA068C0F9D1FDF91F9
:10338000CF910895CF92DF92EF92FF92CF93DF9388
:1033900097FF1BC06B017C016DE289EE94E00E94F7
:1033A0008F06EC0166277727CB016C197D098E0902
:1033B0009F094AE00E94EE178C0F9D1FDF91CF916D
:1033C000FF90EF90DF90CF9008954AE0DF91CF918A
:1033D000FF90EF90DF90CF900C94EE17CF93DF9398
:1033E000CDB7DEB7C05BD1090FB6F894DEBF0FBE14
:1033F000CDBF789484B5826084BD84B5816084BD7E
:1034000085B5826085BD85B5816085BD80916E0082
:10341000816080936E0010928100809181008260B3
:1034200080938100809181008160809381008091F0
:1034300080008160809380008091B10084608093DF
:10344000B1008091B00081608093B00080917A00DB
:10345000846080937A0080917A00826080937A0001
:1034600080917A00816080937A0080917A008068F0
:1034700080937A001092C10020E044E064E189EE7C
:1034800094E00E940C0B89EE94E0909341038093AA
:10349000400388E191E090933F0380933E038CE0EA
:1034A00091E090933D0380933C0384E190E09093FE
:1034B0003B0380933A0384E090E090935003809321
:1034C0004F038EE78093390385EA8093380301E840
:1034D00011E0E12CF12C9E012F5F3F4FCB55DF4FC8
:1034E00039832883C55AD04083E7A82EB12C9BE9A5
:1034F000892E912C522E38E0530EF801659174916B
:10350000CE0101960E9431326090400370904103D9
:10351000B701B3E0660F771FBA95E1F76064C301A6
:103520000E940E0AC5010197F1F7AE014F5F5F4F90
:103530006A01D6016D916D01D301ED91FC9101906D
:10354000F081E02DC3010995C4010197F1F75C10EA
:10355000F0CFBFEFEB1AFB0A0E5F1F4FE8E0EE164D
:10356000F10459F610924E0361E083E00E94820755
:10357000E4E9F1E0E491E33019F150F4E130D1F005
:10358000E230E1F584B5806284BD80E588BD3AC053
:10359000E73011F1E83049F1E43081F580918000A5
:1035A00080628093800080E590E090938B00809310
:1035B0008A0028C084B5806884BD80E587BD22C0AC
:1035C0008091800080688093800080E590E09093F7
:1035D00089008093880016C08091B0008068809335
:1035E000B00080E58093B3000DC08091B000806290
:1035F0008093B00080E58093B40004C060E083E075
:103600000E94520761E089EE94E00E947A05E09101
:103610004204F091430482E08083E0913E04F09103
:103620003F041082E0914004F09141048FEC8083CC
:1036300010924A04E0914604F091470486E08083AA
:10364000E0914404F0914504808180618083E091A1
:103650004404F0914504808188608083E0914404B3
:10366000F0914504808180688083E0914404F0916A
:10367000450480818F7D808389EE94E00E94550A05
:1036800040E061E089EE94E00E941D0A6CEA71E07E
:1036900089EE94E00E94960642E062E089EE94E0B2
:1036A0000E941D0A65EA71E089EE94E00E94960688
:1036B00061E081E10E94820760E081E10E9452079F
:1036C00066E473E084E190E00E9412176FE673E015
:1036D0008CE390E00E94121762E473E08EE190E0C8
:1036E0000E941217A1E6EA2EA3E0FA2E06E410E0EB
:1036F000C8010E94FF35D7018D937D010F5F1F4FD9
:103700000A341105A9F76AE473E08AE590E00E94A3
:1037100012170E94630460932E0470932F04809309
:103720003004909331040E94630400912E041091A0
:103730002F042091300430913104DC01CB01801B37
:10374000910BA20BB30B843F9140A105B10558F337
:103750009E012F563F4FC156DF4F39832883CF59E3
:10376000D040AE014C575F4FCF55DF4F5983488350
:10377000C15AD040CE0187569F4FCD55DF4F998318
:103780008883C35AD040D9011496C555DF4FB983F9
:10379000A883CB5AD0406FE673E08CE390E00E94A0
:1037A000121720E044E064E189EE94E00E940C0BE3
:1037B00089EE94E00E94550A61E974E089EE94E094
:1037C0000E94960641E062E089EE94E00E941D0AA4
:1037D00060916F03709170038091710390917203F7
:1037E00042E00E9431180E946F0C0E9463046093B3
:1037F0002E0470932F0480933004909331040E9420
:10380000630400912E0410912F0420913004309114
:103810003104DC01CB01801B910BA20BB30B883E62
:103820009340A105B10558F38BE894E0A4969FAFAF
:103830008EAFA497A6961FAE1EAEA69782E090E02C
:10384000AA969FAF8EAFAA9782E1E3968FAFE397D8
:1038500083E0AD968FAFAD9781E0AE968FAFAE9718
:10386000AF961FAEAF9790E1E0969FAFE097E196DD
:103870001FAEE197E2968FAFE2978DE690E0E59676
:103880009FAF8EAFE5971E01FDE42F0E311C0DE6B4
:1038900010E0E2E1FE2EF0E1EF2E89EE94E00E94CE
:1038A000550A89EA91E00E94B016E5961FAF0EAF67
:1038B000E597E396FFAEE397E096EFAEE097CE0193
:1038C0008E599F4F0E945312019611F40C946D274C
:1038D000A6968EAD9FADA6978130910509F4F2C2F0
:1038E0008230910509F409C6892BB9F6D1011D92E0
:1038F0001D921D921C9213978DE0E3E7F2E0DE012A
:10390000D89601900D928A95E1F77E01B8E3EB0E0F
:10391000F11CFA82E98284E0898B82E08F8781E062
:10392000888B0AEB11E0A89520E044E064E189EE81
:1039300094E00E940C0B89EE94E00E94550A84ECFE
:1039400091E00E94B01689EE94E00E94550A8CEC3A
:1039500091E00E94B016CE0101960E943E0F0196A2
:1039600009F4A9C289EE94E00E94550A65EB71E062
:1039700089EE94E00E94CF0641E060E089EE94E099
:103980000E941D0A3F922F921F930F93FF92EF9276
:103990000E946A2C0F900F900F900F900F900F9035
:1039A000019741F5F10160817181828193810E94CB
:1039B000C219D1016D917D918D919C910E94DF344E
:1039C00060935D0370935E0380935F039093600345
:1039D00020916F03309170034091710350917203F5
:1039E0000E947D296093590370935A0380935B036F
:1039F00090935C03409046035090470360904803C7
:103A0000709049038090590390905A03A0905B03F3
:103A1000B0905C03A5019401C301B2010E941E2A6B
:103A200018160CF005C260916103709162038091D9
:103A30006303909164030E94DD349B01AC01C501D6
:103A4000B4010E943E3560935503709356038093F2
:103A50005703909358030E9463046B017C0161E05B
:103A600081E10E94520789EE94E00E94550A40E0ED
:103A700060E089EE94E00E941D0A6FE072E089EE3A
:103A800094E00E949606C955DF4F188219821A8267
:103A90001B82C75AD040812C912C54010E94630490
:103AA0002B013C014C185D086E087F08609155039E
:103AB0007091560380915703909158030E94EF290B
:103AC000641575058605970508F4EEC00E94630429
:103AD000DC01CB01C955DF4F288139814A815B81E7
:103AE000C75AD040821B930BA40BB50B803D974067
:103AF000A105B10558F00E946304C955DF4F6883E2
:103B000079838A839B83C75AD040A8950E94630417
:103B1000DC01CB0188199909AA09BB0985369105F1
:103B2000A105B10508F472C00E9463044B015C0159
:103B300041E061E089EE94E00E941D0A0E94630466
:103B40006C197D098E099F090E94DD342B013C010F
:103B500060916103709162038091630390916403AB
:103B60000E94DD349B01AC01C301B2010E947D299A
:103B700060935103709352038093530390935403C3
:103B800042E00E94311841E065E089EE94E00E9435
:103B90001D0A65ED72E089EE94E00E94CF06209147
:103BA0006F033091700340917103509172036091E3
:103BB00051037091520380915303909154030E94DA
:103BC0003E35609351037093520380935303909357
:103BD000540342E061E089EE94E00E941D0A609186
:103BE000510370915203809153039091540342E02A
:103BF0000E94311842E065E089EE94E00E941D0ABF
:103C00006EEB71E089EE94E00E94CF0688ED94E0BF
:103C10000E94AD10883061F50E946304C355DF4FE8
:103C2000688379838A839B83CD5AD04060E081E1A9
:103C30000E94520788ED94E00E94AD108830D1F7C1
:103C40000E9463042B013C0161E081E10E94520764
:103C5000C355DF4F288139814A815B81CD5AD040DD
:103C6000C21AD30AE40AF50AC40CD51CE61CF71CD8
:103C700088ED94E00E94AD10873009F00FCF60E02E
:103C800081E10E94520789EE94E00E94550A40E0CB
:103C900060E089EE94E00E941D0A61E072E089EE26
:103CA00094E00E949606FACE60E081E10E945207FD
:103CB0000E94630460932E0470932F048093300459
:103CC000909331040E94630400912E0410912F04FC
:103CD0002091300430913104DC01CB01801B910B29
:103CE000A20BB30BC297A105B10560F320E044E03D
:103CF00064E189EE94E00E940C0B89EE94E00E944E
:103D0000550A40E060E089EE94E00E941D0A67EFEA
:103D100071E089EE94E00E94960641E060E089EE51
:103D200094E00E941D0A60915D0370915E03809192
:103D30005F039091600342E00E94311841E06AE025
:103D400089EE94E00E941D0A61EF71E089EE94E033
:103D50000E9496062091590330915A0340915B03CB
:103D600050915C0360914603709147038091480332
:103D7000909149030E941029609346037093470372
:103D800080934803909349036093420370934303E5
:103D9000809344039093450362E473E08EE190E0E6
:103DA0000E94871766E473E084E190E00E94871721
:103DB00020915D0330915E0340915F035091600359
:103DC00060914A0370914B0380914C0390914D0395
:103DD0000E94112960934A0370934B0380934C0314
:103DE00090934D036AE473E08AE590E00E948717A0
:103DF0000E94630460932E0470932F048093300418
:103E0000909331040E94630400912E0410912F04BA
:103E10002091300430913104DC01CB01801B910BE7
:103E2000A20BB30B803D9740A105B10558F32FCDF0
:103E3000A5019401C301B2010E94D834181684F17F
:103E400089EE94E00E94550A42E061E089EE94E038
:103E50000E941D0A62EE71E089EE94E00E949606CF
:103E600043E061E089EE94E00E941D0A6091460300
:103E700070914703809148039091490342E00E946A
:103E8000311843E066E089EE94E00E941D0A68ED77
:103E900071E089EE94E00E94960680EA9FE008C0F7
:103EA00069EC71E089EE94E00E94960688EE93E05A
:103EB0000E94F01138CD89EE94E00E94550A69EB1A
:103EC00071E0DEC38EEC92E0D10111969C938E934B
:103ED00013961C921E92129783E090E017969C9383
:103EE0008E93169782E150968C93509783E01A96A2
:103EF0008C931A9781E01B968C931B971C961C92AF
:103F00001C9790E11D969C931D971E961C921E97E0
:103F10001F968C931F978DE690E052969C938E93FC
:103F200051977E01B7E7EB0EF11C7AEBC72E71E0DB
:103F3000D72E12E189EE94E00E94550A20E044E079
:103F400064E189EE94E00E940C0B89EE94E00E94FB
:103F5000550A8AED91E00E94B0162DE630E0F1019D
:103F6000328B218B108BC1010E945312019609F4F0
:103F70008ECCD10112968D919C9113978230910530
:103F800009F407C234F4009761F0019709F4D0C036
:103F9000D1CF8330910509F4FFC1049709F477CCA0
:103FA000C9CF81E080936D0389EE94E00E94550AA9
:103FB00085EE91E00E94B01641E060E089EE94E069
:103FC0000E941D0A62E472E089EE94E00E94960667
:103FD000412C512C320180916D03882309F4A9CF23
:103FE0000E946304DC01CB0184199509A609B70975
:103FF000803A9F40A105B10528F00E9463042B017F
:104000003C01A89588ED94E00E94AD10873029F01E
:10401000883071F18430F9F68CCF0E94630460938C
:10402000690370936A0380936B0390936C0361E060
:1040300081E10E94520789EE94E00E94550A40E017
:1040400060E089EE94E00E941D0A63E372E089EE6D
:1040500094E00E94960641E060E089EE94E00E94C0
:104060001D0A61E272E089EE94E00E949606B3CFE9
:104070000E9463044B015C016093650370936603C7
:10408000809367039093680360E081E10E94520788
:104090008091690390916A03A0916B03B0916C03C6
:1040A000881A990AAA0ABB0A809261039092620355
:1040B000A0926303B092640361E6A62E63E0B62E7D
:1040C00006E410E0D5016D915D011A830983CE01EC
:1040D00001960E9467170F5F1F4F0A34110591F771
:1040E00089EE94E00E94550A40E060E089EE94E099
:1040F0000E941D0A6BE172E089EE94E00E94960630
:1041000041E060E089EE94E00E941D0A6091610345
:104110007091620380916303909164034AE00E946E
:10412000EE1710926D0380ED97E00E94F01153CFCF
:1041300066E473E084E190E00E94121789EE94E057
:104140000E94550A8FEE91E00E94B016CF56DF4FC5
:10415000188219821A821B82C159D0408DE0E3E790
:10416000F2E0D70101900D928A95E1F7F9AEE8AE41
:1041700083E029968FAF299782E027968FAF279704
:1041800081E028968FAF289760EC72E089EE94E08A
:104190000E949606CE01C8960E943E0F019609F431
:1041A000C6C0C056DF4FE881C05AD040EF93C15619
:1041B000DF4FF881CF59D040FF93DF92CF92FF922B
:1041C000EF920E946A2C0F900F900F900F900F901B
:1041D0000F90019709F0A4C089EE94E00E94550A5F
:1041E00041E060E089EE94E00E941D0A6CEF71E00E
:1041F00089EE94E00E94CF0642E063E089EE94E00D
:104200000E941D0ACF56DF4F688179818A819B8188
:10421000C159D0400E94C21942E068E089EE94E0A2
:104220000E941D0A6BEB72E089EE94E00E949606F4
:10423000CF56DF4F688179818A819B81C159D040F7
:104240000E94DF3420914603309147034091480398
:10425000509149030E9411296093460370934703CC
:104260008093480390934903609342037093430300
:10427000809344039093450366E473E084E190E007
:104280000E94871762E473E08EE190E00E94871736
:10429000CC56DF4F8881C459D0408F93CD56DF4F25
:1042A0008881C359D0408F93CE56DF4F8881C25941
:1042B000D0408F93CF56DF4F8881C159D0408F9324
:1042C0008DE092E09F938F9321E030E02C0F3D1F13
:1042D0003F932F930E94472C6091460370914703B0
:1042E00080914803909149038E010C571F4F22E0A3
:1042F0004AEF0E941132BC01CE0101960E94352C7A
:1043000065ED72E0CE0101960E94352CCE0101963A
:104310000E946B0B0FB6F894DEBF0FBECDBF12C06C
:104320006CEA72E089EE94E00E9496060BC089EE7A
:1043300094E00E94550A6CE972E089EE94E00E94D4
:104340009606F7CD0E94630460932E0470932F04A9
:1043500080933004909331040E94630400912E04F2
:1043600010912F042091300430913104DC01CB01F5
:10437000801B910BA20BB30B803D9740A105B105AB
:1043800058F320E044E064E189EE94E00E940C0BD5
:10439000D0CD0E943817CDCD0E9463042B013C0183
:1043A00081E080936E0389EE94E00E94550A8CE3CD
:1043B00092E00E94B01641E060E089EE94E00E9435
:1043C0001D0A6BE872E089EE94E00E949606812C4B
:1043D000912C540180916E03882309F4AACD0E9488
:1043E0006304DC01CB0188199909AA09BB09803A49
:1043F0009F40A105B10528F00E9463044B015C01B8
:10440000A8950E946304DC01CB0184199509A609D3
:10441000B70980339547A105B10548F189EE94E0CD
:104420000E94550A41E060E089EE94E00E941D0A76
:104430006AE772E089EE94E00E94960620E044E08C
:1044400064E189EE94E00E940C0B41E060E089EEAB
:1044500094E00E941D0A6CE672E089EE94E00E94EE
:10446000960680ED97E00E94F01110926E0388EDA1
:1044700094E00E94AD10873031F0883001F1833034
:1044800009F0A8CF56CD61E081E10E94520720E0FB
:1044900044E064E189EE94E00E940C0B41E060E0AE
:1044A00089EE94E00E941D0A69E572E089EE94E0CD
:1044B0000E9496060E9463042B013C018BCF60E0B2
:1044C00081E10E94520720E044E064E189EE94E03B
:1044D0000E940C0B41E060E089EE94E00E941D0A0E
:1044E00063E572E089EE94E00E94960680ED97E025
:1044F0000E94F01110926E036DCF20E044E064E161
:1045000089EE94E00E940C0B89EE94E00E94550A1B
:104510008E0109581F4FB80184E090E00E94FE16FA
:104520009DE0992E9E01285C3F4F790124E0822E68
:1045300032E0732E66246394AA24A394B12C5AEB20
:10454000C52E51E0D52ED1011D921D921D921C92B7
:104550001397E3E7F2E0D701892D01900D928A9538
:10456000E1F7FA82E982898A7F86688ABB8AAA8A09
:1045700020E044E064E189EE94E00E940C0B89EEB7
:1045800094E00E94550A63E073E089EE94E00E9493
:104590009606CE0101960E943E0F019609F46AC06C
:1045A00089EE94E00E94550A41E060E089EE94E0D3
:1045B0000E941D0A3F922F92DF92CF92FF92EF92BC
:1045C0000E946A2C0F900F900F900F900F900F90F9
:1045D000019709F048C0F80180819181092E000CF3
:1045E000AA0BBB0BF1014081518162817381481795
:1045F00059076A077B0709F0A6CF66EF72E089EEDC
:1046000094E00E9496068DE794E0D10111969C9368
:104610008E9313961C921E92129786E090E0179646
:104620009C938E93169782E150968C93509783E0DB
:104630001A968C931A9781E01B968C931B971C9665
:104640001C921C9790E11D969C931D971E961C92A0
:104650001E971F968C931F978DE690E052969C9321
:104660008E93519790C066EE72E089EE94E00E94BE
:10467000960669CF89EE94E00E94550A66ED72E0D5
:1046800089EE94E00E94960602C989EE94E00E94A9
:10469000550A8BE492E00E94B016CC57DF4F188287
:1046A00019821A821B82C458D0408DE0E3E7F2E001
:1046B000DE01D89601900D928A95E1F7FA82E9829F
:1046C00084E0898B82E08F8781E0888B60E774E0EB
:1046D00089EE94E00E949606CE0101960E943E0F5C
:1046E000019609F47FC089EE94E00E94550A64E6C1
:1046F00074E089EE94E00E94960641E060E089EE65
:1047000094E00E941D0ACE55DF4FE881C25AD04086
:10471000EF93CF55DF4FF881C15AD040FF938AEB1A
:1047200091E09F938F93FF92EF920E946A2C0F90DB
:104730000F900F900F900F900F90019709F04FC0BE
:10474000CC57DF4F688179818A819B81C458D040E2
:104750000E94C219CC57DF4F688179818A819B8181
:10476000C458D0400E94DF34D8016D937D938D935F
:104770009C931397B8018CE390E00E94871780ED1B
:1047800097E00E94F011BDE6CB2ED12C82E1B82E2D
:104790000E946F0C20E044E064E189EE94E00E9406
:1047A0000C0B89EE94E00E94550A82E492E00E948C
:1047B000B016F101D28AC18AB08AC1010E94531297
:1047C000019609F464C8D1011296ED91FC911397FA
:1047D000EA30F105E8F6EC5CFF4F0C94F62865E54D
:1047E00074E006C089EE94E00E94550A65E474E026
:1047F00089EE94E00E949606C2CF6AE473E08AE5EF
:1048000090E00E94121789EE94E00E94550A8AE512
:1048100092E00E94B01641E060E089EE94E00E94D0
:104820001D0A60914A0370914B0380914C03909153
:104830004D0342E00E94311880EA9FE0A2CF0E941F
:104840003817A1CFF80110821182128213828DE0F5
:10485000E3E7F2E0DE01D89601900D928A95E1F748
:10486000FA82E9828AE0898B82E08F8781E0888BF7
:1048700089EE94E00E94550A67E374E089EE94E0C3
:104880000E949606CE0101960E943E0F019609F401
:1048900066C089EE94E00E94550A6AE274E089EEEF
:1048A00094E00E94960641E060E089EE94E00E9468
:1048B0001D0A1F930F938AEB91E09F938F93FF92B2
:1048C000EF920E946A2C0F900F900F900F900F9014
:1048D0000F90019709F040C0D8016D917D918D91A5
:1048E0009C910E94C2196801A8ECAA2EB12CF60175
:1048F00061916F01CC57DF4FB982A882C458D04074
:10490000CE018C579F4F0E946717FFEFAF1ABF0A67
:104910002CECA216B10459F70E94630460932E0494
:1049200070932F0480933004909331040E946304A9
:1049300080902E0490902F04A0903004B090310409
:10494000DC01CB0188199909AA09BB09803D974070
:10495000A105B10558F370CF6BE174E081C089EE19
:1049600094E00E94550A6BE074E07AC0D8011D9271
:104970001D921D921C9213978DE0E3E7F2E0DE0199
:10498000D89601900D928A95E1F7FA82E9828AE041
:10499000898B82E08F8781E0888B89EE94E00E948A
:1049A000550A6DEF73E089EE94E00E949606CE0101
:1049B00001960E943E0F019609F44CC089EE94E0E6
:1049C0000E94550A60EF73E089EE94E00E9496061B
:1049D00041E060E089EE94E00E941D0A1F930F936E
:1049E0008AEB91E09F938F93FF92EF920E946A2C43
:1049F0000F900F900F900F900F900F90019739F537
:104A0000F80160817181828193810E94C2190E94A4
:104A1000630460932E0470932F048093300490936A
:104A200031040E94630480902E0490902F04A09083
:104A30003004B0903104DC01CB0188199909AA092E
:104A4000BB09883B9B40A105B10558F3F5CE61EE4B
:104A500073E006C089EE94E00E94550A61ED73E0B0
:104A600089EE94E00E949606E7CEBE0163567F4F22
:104A700084E090E00E94FE165DE0952E64E0862EB4
:104A800072E0772E66246394AA24A394B12CFAEBE7
:104A9000CF2EF1E0DF2EC756DF4F188219821A821F
:104AA0001B82C959D040E3E7F2E0DE01AC57BF4FAB
:104AB000892D01900D928A95E1F724E830E02C0FC2
:104AC0003D1F39AF28AF29968FAE299727967FAE25
:104AD000279728966FAE28972B96BFAEAEAE2B9732
:104AE00020E044E064E189EE94E00E940C0B89EE42
:104AF00094E00E94550A62EB73E089EE94E00E9414
:104B00009606C7010E943E0F019609F47DC189EE09
:104B100094E00E94550A41E060E089EE94E00E9432
:104B20001D0ACC55DF4F4881C45AD0404F93CD5514
:104B3000DF4F5881C35AD0405F93DF92CF92CE555A
:104B4000DF4F8881C25AD0408F93CF55DF4F988175
:104B5000C15AD0409F930E946A2C0F900F900F90E3
:104B60000F900F900F90019709F047C1C356DF4F88
:104B700088819981CD59D040092E000CAA0BBB0B1E
:104B8000C756DF4F488159816A817B81C959D0401E
:104B9000481759076A077B0709F02CC165EA73E0DB
:104BA00089EE94E00E9496060E94630460932E04AE
:104BB00070932F0480933004909331040E94630417
:104BC00080902E0490902F04A0903004B090310477
:104BD000DC01CB0188199909AA09BB09843F9140DE
:104BE000A105B10558F38DE0982E94E0892E22E0BE
:104BF000722E66246394AA24A394B12C4AEBC42E8B
:104C000041E0D42ECF56DF4F188219821A821B82C0
:104C1000C159D040CB56DF4F188219821A821B82AD
:104C2000C559D040E3E7F2E0D801892D01900D92FB
:104C30008A95E1F71A830983898A7F86688ABB8A05
:104C4000AA8A20E044E064E189EE94E00E940C0B23
:104C500089EE94E00E94550A6CE573E089EE94E0D9
:104C60000E949606CE0101960E943E0F019609F41D
:104C70008EC089EE94E00E94550A41E060E089EE22
:104C800094E00E941D0AC056DF4F2881C05AD040D0
:104C90002F93C156DF4F3881CF59D0403F93DF92D9
:104CA000CF921F930F930E946A2C0F900F900F903A
:104CB0000F900F900F90019709F062C089EE94E079
:104CC0000E94550A6FE473E089EE94E00E94960614
:104CD000D8011C92CE0101960E943E0F019609F464
:104CE0004CC089EE94E00E94550A41E060E089EEF4
:104CF00094E00E941D0AC455DF4FE881CC5AD04091
:104D0000EF93C555DF4FF881CB5AD040FF93DF9228
:104D1000CF921F930F930E946A2C0F900F900F90C9
:104D20000F900F900F90019709F06CCF89EE94E0EF
:104D30000E94550ACF56DF4F488159816A817B8195
:104D4000C159D040CB56DF4F88819981AA81BB8160
:104D5000C559D040481759076A077B0709F052CF59
:104D600064E473E089EE94E00E949606CF56DF4F2C
:104D700088819981C159D04016C064E373E002C0B4
:104D800064E273E089EE94E00E9496063BCF89EEE0
:104D900094E00E94550A64E173E089EE94E00E9479
:104DA000960680E090E0D80111969C938E93892B13
:104DB00009F4E9CC6C9184E090E09A838983CE0178
:104DC00001960E946717F801618185E090E09A835F
:104DD0008983CE0101960E94671789EE94E00E94B4
:104DE000550A40E060E089EE94E00E941D0A68E9FF
:104DF00073E010C06CE873E002C06CE773E089EE0A
:104E000094E00E94960647CE89EE94E00E94550AEF
:104E10006CE673E089EE94E00E949606B4CC89EECD
:104E200094E00E94550A87E692E00E94B016109224
:104E300046031092470310924803109249031092C0
:104E400042031092430310924403109245031092C0
:104E50004A0310924B0310924C0310924D0366E4E8
:104E600073E084E190E00E94871762E473E08EE1D2
:104E700090E00E9487176AE473E08AE590E00E9460
:104E8000871741E060E089EE94E00E941D0A62EC21
:104E900073E089EE94E00E9496060E94630460939A
:104EA0002E0470932F0480933004909331040E9459
:104EB000630480902E0490902F04A0903004B09052
:104EC0003104DC01CB0188199909AA09BB09883B87
:104ED0009B40A105B10558F356CC0E9434040C94B4
:104EE000CB1B0F931F93CF93DF9310923504109237
:104EF000340488EE93E0A0E0B0E080933604909311
:104F00003704A0933804B09339042FE431E0309390
:104F100033042093320425EC30E030933F04209397
:104F20003E0424EC30E0309341042093400420EC14
:104F300030E0309343042093420421EC30E030937E
:104F400045042093440422EC30E03093470420933E
:104F5000460426EC30E03093490420934804109234
:104F60004B0410924C0410924D0410924E04109277
:104F70002504109224048093260490932704A09380
:104F80002804B09329048FE591E090932304809343
:104F900022041092EC041092EB048DE991E09093BE
:104FA000EA048093E9041092F904CFEFC093F80467
:104FB0001092F7041092FA0487E28093F40410929E
:104FC000F5041092F6041092F3041092F204D4E067
:104FD000D093FB0482E08093FC0481E08093FD0485
:104FE00080E18093FE0480E28093FF0480E480935C
:104FF000000580E88093010540E050E063E089EE21
:1050000094E00E947A0985E891E09093D904809316
:10501000D80481E391E09093E8048093E70488E268
:1050200091E09093E6048093E50485E08093E004AA
:10503000D093E104C093E3041092E4040E9463045B
:105040006093DC047093DD048093DE049093DF04AE
:1050500000E010E0C091E004D0E00C171D07BCF4A4
:10506000E091E504F091E604E00FF11F60E080813B
:105070000E948207E091E504F091E604E00FF11F41
:1050800061E080810E9452070F5F1F4FE3CF2091A4
:10509000E1048091E00490E0820F911DC817D907C8
:1050A000B4F4E091E504F091E604EC0FFD1F61E03B
:1050B00080810E948207E091E504F091E604EC0F04
:1050C000FD1F61E080810E9452072196E0CF8FE6AC
:1050D00091E09093D0048093CF0489E08093D10431
:1050E00080E895E2A0E0B0E08093D4049093D504EA
:1050F000A093D604B093D70482E394E09093D304B2
:105100008093D20483E694E0092E000CAA0BBB0B1B
:1051100080932E0490932F04A0933004B093310415
:10512000DF91CF911F910F910895991B79E004C0F1
:10513000991F961708F0961B881F7A95C9F78095D6
:10514000089597FB072E16F4009407D077FD09D039
:105150000E94FC2807FC05D03EF4909581959F4F56
:105160000895709561957F4F0895A1E21A2EAA1BAC
:10517000BB1BFD010DC0AA1FBB1FEE1FFF1FA21707
:10518000B307E407F50720F0A21BB30BE40BF50B04
:10519000661F771F881F991F1A9469F7609570958D
:1051A000809590959B01AC01BD01CF010895052E1E
:1051B00097FB1EF400940E94EE2857FD07D00E9432
:1051C000B52807FC03D04EF40C94EE28509540957A
:1051D000309521953F4F4F4F5F4F089590958095A3
:1051E000709561957F4F8F4F9F4F0895EE0FFF1F72
:1051F0000590F491E02D0994AA1BBB1B51E107C057
:10520000AA1FBB1FA617B70710F0A61BB70B881F56
:10521000991F5A95A9F780959095BC01CD010895E5
:105220005058BB27AA270E9428290C94C5350E94F4
:10523000B73538F00E94BE3520F039F49F3F19F49D
:1052400026F40C94B4350EF4E095E7FB0C94AE35DF
:10525000E92F0E94D63558F3BA17620773078407FF
:10526000950720F079F4A6F50C94F8350EF4E09546
:105270000B2EBA2FA02D0B01B90190010C01CA0110
:10528000A0011124FF27591B99F0593F50F4503EBB
:1052900068F11A16F040A22F232F342F4427585FAD
:1052A000F3CF469537952795A795F0405395C9F7C5
:1052B0007EF41F16BA0B620B730B840BBAF091507D
:1052C000A1F0FF0FBB1F661F771F881FC2F70EC01C
:1052D000BA0F621F731F841F48F4879577956795EF
:1052E000B795F7959E3F08F0B0CF9395880F08F0DB
:1052F0009927EE0F9795879508950E9491290C9410
:10530000C5350E94BE3558F00E94B73540F029F4EB
:105310005F3F29F00C94AE3551110C94F9350C9483
:10532000B4350E94D63568F39923B1F3552391F330
:10533000951B550BBB27AA2762177307840738F004
:105340009F5F5F4F220F331F441FAA1FA9F335D061
:105350000E2E3AF0E0E832D091505040E695001C15
:10536000CAF72BD0FE2F29D0660F771F881FBB1FCF
:10537000261737074807AB07B0E809F0BB0B802DAD
:10538000BF01FF2793585F4F3AF09E3F510578F0D9
:105390000C94AE350C94F9355F3FE4F3983ED4F3AA
:1053A000869577956795B795F7959F5FC9F7880FAD
:1053B000911D9695879597F90895E1E0660F771FFF
:1053C000881FBB1F621773078407BA0720F0621B90
:1053D000730B840BBA0BEE1F88F7E09508950E94BB
:1053E000DE3588F09F5798F0B92F9927B751B0F064
:1053F000E1F0660F771F881F991F1AF0BA95C9F759
:1054000014C0B13091F00E94F835B1E008950C94C9
:10541000F835672F782F8827B85F39F0B93FCCF37C
:10542000869577956795B395D9F73EF490958095D5
:10543000709561957F4F8F4F9F4F08950E941A3549
:1054400008F48FEF08950E941A35880B990B089580
:10545000CF93DF938230910510F482E090E0E091E9
:105460000405F091050520E030E0C0E0D0E0309781
:1054700011F14081518148175907C0F04817590769
:1054800061F482819381209719F09B838A832BC0DA
:10549000909305058093040526C02115310519F068
:1054A0004217530718F49A01BE01DF01EF01028091
:1054B000F381E02DDCCF2115310509F1281B390BD3
:1054C0002430310590F412968D919C9113976115BB
:1054D000710521F0FB019383828304C0909305053D
:1054E00080930405FD01329644C0FD01E20FF31FD5
:1054F00081939193225031092D933C933AC020918E
:10550000020530910305232B41F42091470130918E
:105510004801309303052093020520914501309105
:1055200046012115310541F42DB73EB7409149019F
:1055300050914A01241B350BE0910205F0910305BF
:10554000E217F307A0F42E1B3F0B2817390778F05A
:10555000AC014E5F5F4F2417350748F04E0F5F1FB9
:1055600050930305409302058193919302C0E0E0BC
:10557000F0E0CF01DF91CF9108950F931F93CF9368
:10558000DF93009709F48CC0FC01329713821282DA
:1055900000910405109105050115110581F4208184
:1055A0003181820F931F2091020530910305281746
:1055B000390779F5F0930305E093020571C0D8012E
:1055C00040E050E0AE17BF0750F412962D913C9189
:1055D0001397AD012115310509F1D901F3CF9D01D3
:1055E000DA013383228360817181860F971F8217CE
:1055F000930769F4EC0128813981260F371F2E5F4C
:105600003F4F318320838A819B8193838283452B03
:1056100029F4F0930505E093040542C01396FC932A
:10562000EE931297ED01499159919E01240F351F78
:10563000E217F30771F480819181840F951F029620
:1056400011969C938E938281938113969C938E9353
:105650001297E0E0F0E0D80112968D919C9113979B
:10566000009719F0F8018C01F6CF8D919C9198016B
:105670002E5F3F4F820F931F20910205309103054B
:105680002817390769F4309729F41092050510920C
:10569000040502C0138212821093030500930205D1
:1056A000DF91CF911F910F910895A0E0B0E0EBE55D
:1056B000FBE20C941936EC01009721F4CB010E9417
:1056C000282AB8C0FC01E60FF71F9C0122503109BF
:1056D000E217F30708F4ACC0D9010D911C911197A2
:1056E00006171707B0F00530110508F49FC0C80170
:1056F00004978617970708F499C002501109061BF2
:10570000170B019311936D937C93CF010E94BD2AD7
:105710008DC05B01A01AB10A4C01800E911EA091B0
:105720000405B091050540E050E0E12CF12C109704
:1057300009F44AC0A815B905D1F56D907C90119770
:10574000630182E0C80ED11CCA14DB0480F1A301FE
:105750004A195B096A0182E0C80ED11C1296BC90FE
:1057600012971396AC91B5E0CB16D10440F0B282FB
:10577000A38351834083D9016D937C930AC00E5F4C
:105780001F4FC301800F911FF90191838083EB2D7F
:10579000FA2FE114F10431F0D7011396FC93EE9344
:1057A000129744C0F0930505E09304053FC08D9126
:1057B0009C9111974817590708F4AC017D01129686
:1057C0000D90BC91A02DB3CF80910205909103055F
:1057D00088159905E1F446175707C8F480914501EB
:1057E00090914601009741F48DB79EB740914901D1
:1057F00050914A01841B950BE817F907C8F4F09300
:105800000305E0930205F901718360830FC0CB01AA
:105810000E94282A7C01009759F0A801BE010E942D
:105820002C2CCE010E94BD2AC70104C0CE0102C0AB
:1058300080E090E0CDB7DEB7EEE00C94353681E045
:1058400090E0F8940C944C369111089581548A514B
:1058500008F4805E855A0895FB01DC0102C00190C6
:105860000D9241505040D8F70895FB01DC010D9096
:105870000020E9F7119701900D920020E1F70895BB
:10588000FB01DC0101900D920020E1F70895AEE0EC
:10589000B0E0EDE4FCE20C9423360D891E8986E02D
:1058A0008C831A8309838FEF9FE79E838D83AE01DC
:1058B000475E5F4F6F89788DCE0101960E94832CE1
:1058C0002F813885F801E20FF31F10822E96E4E055
:1058D0000C943F36AEE0B0E0E0E7FCE20C942536F5
:1058E00085E08C838B899C899A838983AE01495E8C
:1058F0005F4F6D897E89CE0101960E94D52F2E962D
:10590000E2E00C944136ACE0B0E0E9E8FCE20C9453
:1059100015367C016B018A01FC0117821682838196
:1059200081FFBDC1CE0101964C01F7019381F601C3
:1059300093FD859193FF81916F01882309F4ABC199
:10594000853239F493FD859193FF81916F01853202
:1059500029F4B70190E00E946231E7CF512C312C3D
:1059600020E02032A0F48B3269F030F4803259F01C
:10597000833269F420612CC08D3239F0803339F4E0
:10598000216026C02260246023C0286021C027FD3A
:1059900027C030ED380F3A3078F426FF06C0FAE021
:1059A0005F9E300D1124532E13C08AE0389E300DB7
:1059B0001124332E20620CC08E3221F426FD6BC1DF
:1059C000206406C08C3611F4206802C0883641F489
:1059D000F60193FD859193FF81916F018111C1CFF4
:1059E000982F9F7D9554933028F40C5F1F4FFFE351
:1059F000F9830DC0833631F0833771F0833509F0B8
:105A00005BC022C0F801808189830E5F1F4F442450
:105A10004394512C540115C03801F2E06F0E711CF3
:105A2000F801A080B18026FF03C0652D70E002C0A0
:105A30006FEF7FEFC5012C870E9419312C01830184
:105A40002C852F77222E17C03801F2E06F0E711CC3
:105A5000F801A080B18026FF03C0652D70E002C070
:105A60006FEF7FEFC5012C870E940E312C012C8532
:105A70002068222E830123FC1BC0832D90E0481652
:105A80005906B0F4B70180E290E00E9462313A9486
:105A9000F4CFF50127FC859127FE81915F01B701C5
:105AA00090E00E94623131103A94F1E04F1A5108AF
:105AB0004114510471F7E5C0843611F0893639F587
:105AC000F80127FF07C060817181828193810C5F9B
:105AD0001F4F08C060817181072E000C880B990B45
